{
	"function.sol": {
		"addfunction": {
			"abi": [
				{
					"inputs": [
						{
							"internalType": "uint256",
							"name": "_a",
							"type": "uint256"
						},
						{
							"internalType": "uint256",
							"name": "_b",
							"type": "uint256"
						}
					],
					"name": "sumfunction",
					"outputs": [
						{
							"internalType": "uint256",
							"name": "c",
							"type": "uint256"
						}
					],
					"stateMutability": "nonpayable",
					"type": "function"
				}
			],
			"devdoc": {
				"kind": "dev",
				"methods": {},
				"version": 1
			},
			"evm": {
				"assembly": "    /* \"function.sol\":67:255  contract addfunction {... */\n  mstore(0x40, 0x80)\n  callvalue\n  dup1\n  iszero\n  tag_1\n  jumpi\n  0x00\n  dup1\n  revert\ntag_1:\n  pop\n  dataSize(sub_0)\n  dup1\n  dataOffset(sub_0)\n  0x00\n  codecopy\n  0x00\n  return\nstop\n\nsub_0: assembly {\n        /* \"function.sol\":67:255  contract addfunction {... */\n      mstore(0x40, 0x80)\n      callvalue\n      dup1\n      iszero\n      tag_1\n      jumpi\n      0x00\n      dup1\n      revert\n    tag_1:\n      pop\n      jumpi(tag_2, lt(calldatasize, 0x04))\n      shr(0xe0, calldataload(0x00))\n      dup1\n      0xd0f707df\n      eq\n      tag_3\n      jumpi\n    tag_2:\n      0x00\n      dup1\n      revert\n        /* \"function.sol\":125:252  function sumfunction(uint _a, uint _b) public returns(uint c) {... */\n    tag_3:\n      tag_4\n      0x04\n      dup1\n      calldatasize\n      sub\n      dup2\n      add\n      swap1\n      tag_5\n      swap2\n      swap1\n      tag_6\n      jump\t// in\n    tag_5:\n      tag_7\n      jump\t// in\n    tag_4:\n      mload(0x40)\n      tag_8\n      swap2\n      swap1\n      tag_9\n      jump\t// in\n    tag_8:\n      mload(0x40)\n      dup1\n      swap2\n      sub\n      swap1\n      return\n    tag_7:\n        /* \"function.sol\":179:185  uint c */\n      0x00\n        /* \"function.sol\":202:204  _a */\n      dup3\n        /* \"function.sol\":198:199  a */\n      0x00\n        /* \"function.sol\":198:204  a = _a */\n      dup2\n      swap1\n      sstore\n      pop\n        /* \"function.sol\":219:221  _b */\n      dup2\n        /* \"function.sol\":215:216  b */\n      0x01\n        /* \"function.sol\":215:221  b = _b */\n      dup2\n      swap1\n      sstore\n      pop\n        /* \"function.sol\":243:244  b */\n      sload(0x01)\n        /* \"function.sol\":241:242  a */\n      sload(0x00)\n        /* \"function.sol\":241:244  a-b */\n      tag_11\n      swap2\n      swap1\n      tag_12\n      jump\t// in\n    tag_11:\n        /* \"function.sol\":234:244  return a-b */\n      swap1\n      pop\n        /* \"function.sol\":125:252  function sumfunction(uint _a, uint _b) public returns(uint c) {... */\n      swap3\n      swap2\n      pop\n      pop\n      jump\t// out\n        /* \"#utility.yul\":88:205   */\n    tag_14:\n        /* \"#utility.yul\":197:198   */\n      0x00\n        /* \"#utility.yul\":194:195   */\n      dup1\n        /* \"#utility.yul\":187:199   */\n      revert\n        /* \"#utility.yul\":334:411   */\n    tag_16:\n        /* \"#utility.yul\":371:378   */\n      0x00\n        /* \"#utility.yul\":400:405   */\n      dup2\n        /* \"#utility.yul\":389:405   */\n      swap1\n      pop\n        /* \"#utility.yul\":334:411   */\n      swap2\n      swap1\n      pop\n      jump\t// out\n        /* \"#utility.yul\":417:539   */\n    tag_17:\n        /* \"#utility.yul\":490:514   */\n      tag_27\n        /* \"#utility.yul\":508:513   */\n      dup2\n        /* \"#utility.yul\":490:514   */\n      tag_16\n      jump\t// in\n    tag_27:\n        /* \"#utility.yul\":483:488   */\n      dup2\n        /* \"#utility.yul\":480:515   */\n      eq\n        /* \"#utility.yul\":470:533   */\n      tag_28\n      jumpi\n        /* \"#utility.yul\":529:530   */\n      0x00\n        /* \"#utility.yul\":526:527   */\n      dup1\n        /* \"#utility.yul\":519:531   */\n      revert\n        /* \"#utility.yul\":470:533   */\n    tag_28:\n        /* \"#utility.yul\":417:539   */\n      pop\n      jump\t// out\n        /* \"#utility.yul\":545:684   */\n    tag_18:\n        /* \"#utility.yul\":591:596   */\n      0x00\n        /* \"#utility.yul\":629:635   */\n      dup2\n        /* \"#utility.yul\":616:636   */\n      calldataload\n        /* \"#utility.yul\":607:636   */\n      swap1\n      pop\n        /* \"#utility.yul\":645:678   */\n      tag_30\n        /* \"#utility.yul\":672:677   */\n      dup2\n        /* \"#utility.yul\":645:678   */\n      tag_17\n      jump\t// in\n    tag_30:\n        /* \"#utility.yul\":545:684   */\n      swap3\n      swap2\n      pop\n      pop\n      jump\t// out\n        /* \"#utility.yul\":690:1164   */\n    tag_6:\n        /* \"#utility.yul\":758:764   */\n      0x00\n        /* \"#utility.yul\":766:772   */\n      dup1\n        /* \"#utility.yul\":815:817   */\n      0x40\n        /* \"#utility.yul\":803:812   */\n      dup4\n        /* \"#utility.yul\":794:801   */\n      dup6\n        /* \"#utility.yul\":790:813   */\n      sub\n        /* \"#utility.yul\":786:818   */\n      slt\n        /* \"#utility.yul\":783:902   */\n      iszero\n      tag_32\n      jumpi\n        /* \"#utility.yul\":821:900   */\n      tag_33\n      tag_14\n      jump\t// in\n    tag_33:\n        /* \"#utility.yul\":783:902   */\n    tag_32:\n        /* \"#utility.yul\":941:942   */\n      0x00\n        /* \"#utility.yul\":966:1019   */\n      tag_34\n        /* \"#utility.yul\":1011:1018   */\n      dup6\n        /* \"#utility.yul\":1002:1008   */\n      dup3\n        /* \"#utility.yul\":991:1000   */\n      dup7\n        /* \"#utility.yul\":987:1009   */\n      add\n        /* \"#utility.yul\":966:1019   */\n      tag_18\n      jump\t// in\n    tag_34:\n        /* \"#utility.yul\":956:1019   */\n      swap3\n      pop\n        /* \"#utility.yul\":912:1029   */\n      pop\n        /* \"#utility.yul\":1068:1070   */\n      0x20\n        /* \"#utility.yul\":1094:1147   */\n      tag_35\n        /* \"#utility.yul\":1139:1146   */\n      dup6\n        /* \"#utility.yul\":1130:1136   */\n      dup3\n        /* \"#utility.yul\":1119:1128   */\n      dup7\n        /* \"#utility.yul\":1115:1137   */\n      add\n        /* \"#utility.yul\":1094:1147   */\n      tag_18\n      jump\t// in\n    tag_35:\n        /* \"#utility.yul\":1084:1147   */\n      swap2\n      pop\n        /* \"#utility.yul\":1039:1157   */\n      pop\n        /* \"#utility.yul\":690:1164   */\n      swap3\n      pop\n      swap3\n      swap1\n      pop\n      jump\t// out\n        /* \"#utility.yul\":1170:1288   */\n    tag_19:\n        /* \"#utility.yul\":1257:1281   */\n      tag_37\n        /* \"#utility.yul\":1275:1280   */\n      dup2\n        /* \"#utility.yul\":1257:1281   */\n      tag_16\n      jump\t// in\n    tag_37:\n        /* \"#utility.yul\":1252:1255   */\n      dup3\n        /* \"#utility.yul\":1245:1282   */\n      mstore\n        /* \"#utility.yul\":1170:1288   */\n      pop\n      pop\n      jump\t// out\n        /* \"#utility.yul\":1294:1516   */\n    tag_9:\n        /* \"#utility.yul\":1387:1391   */\n      0x00\n        /* \"#utility.yul\":1425:1427   */\n      0x20\n        /* \"#utility.yul\":1414:1423   */\n      dup3\n        /* \"#utility.yul\":1410:1428   */\n      add\n        /* \"#utility.yul\":1402:1428   */\n      swap1\n      pop\n        /* \"#utility.yul\":1438:1509   */\n      tag_39\n        /* \"#utility.yul\":1506:1507   */\n      0x00\n        /* \"#utility.yul\":1495:1504   */\n      dup4\n        /* \"#utility.yul\":1491:1508   */\n      add\n        /* \"#utility.yul\":1482:1488   */\n      dup5\n        /* \"#utility.yul\":1438:1509   */\n      tag_19\n      jump\t// in\n    tag_39:\n        /* \"#utility.yul\":1294:1516   */\n      swap3\n      swap2\n      pop\n      pop\n      jump\t// out\n        /* \"#utility.yul\":1522:1702   */\n    tag_20:\n        /* \"#utility.yul\":1570:1647   */\n      0x4e487b7100000000000000000000000000000000000000000000000000000000\n        /* \"#utility.yul\":1567:1568   */\n      0x00\n        /* \"#utility.yul\":1560:1648   */\n      mstore\n        /* \"#utility.yul\":1667:1671   */\n      0x11\n        /* \"#utility.yul\":1664:1665   */\n      0x04\n        /* \"#utility.yul\":1657:1672   */\n      mstore\n        /* \"#utility.yul\":1691:1695   */\n      0x24\n        /* \"#utility.yul\":1688:1689   */\n      0x00\n        /* \"#utility.yul\":1681:1696   */\n      revert\n        /* \"#utility.yul\":1708:1902   */\n    tag_12:\n        /* \"#utility.yul\":1748:1752   */\n      0x00\n        /* \"#utility.yul\":1768:1788   */\n      tag_42\n        /* \"#utility.yul\":1786:1787   */\n      dup3\n        /* \"#utility.yul\":1768:1788   */\n      tag_16\n      jump\t// in\n    tag_42:\n        /* \"#utility.yul\":1763:1788   */\n      swap2\n      pop\n        /* \"#utility.yul\":1802:1822   */\n      tag_43\n        /* \"#utility.yul\":1820:1821   */\n      dup4\n        /* \"#utility.yul\":1802:1822   */\n      tag_16\n      jump\t// in\n    tag_43:\n        /* \"#utility.yul\":1797:1822   */\n      swap3\n      pop\n        /* \"#utility.yul\":1846:1847   */\n      dup3\n        /* \"#utility.yul\":1843:1844   */\n      dup3\n        /* \"#utility.yul\":1839:1848   */\n      sub\n        /* \"#utility.yul\":1831:1848   */\n      swap1\n      pop\n        /* \"#utility.yul\":1870:1871   */\n      dup2\n        /* \"#utility.yul\":1864:1868   */\n      dup2\n        /* \"#utility.yul\":1861:1872   */\n      gt\n        /* \"#utility.yul\":1858:1895   */\n      iszero\n      tag_44\n      jumpi\n        /* \"#utility.yul\":1875:1893   */\n      tag_45\n      tag_20\n      jump\t// in\n    tag_45:\n        /* \"#utility.yul\":1858:1895   */\n    tag_44:\n        /* \"#utility.yul\":1708:1902   */\n      swap3\n      swap2\n      pop\n      pop\n      jump\t// out\n\n    auxdata: 0xa2646970667358221220d9431d8c53fd82638907384b1b2756d1a81fab97421a859fd5f99f23f340632964736f6c63430008120033\n}\n",
				"bytecode": {
					"linkReferences": {},
					"object": "608060405234801561001057600080fd5b506101c6806100206000396000f3fe608060405234801561001057600080fd5b506004361061002b5760003560e01c8063d0f707df14610030575b600080fd5b61004a600480360381019061004591906100c3565b610060565b6040516100579190610112565b60405180910390f35b60008260008190555081600181905550600154600054610080919061015c565b905092915050565b600080fd5b6000819050919050565b6100a08161008d565b81146100ab57600080fd5b50565b6000813590506100bd81610097565b92915050565b600080604083850312156100da576100d9610088565b5b60006100e8858286016100ae565b92505060206100f9858286016100ae565b9150509250929050565b61010c8161008d565b82525050565b60006020820190506101276000830184610103565b92915050565b7f4e487b7100000000000000000000000000000000000000000000000000000000600052601160045260246000fd5b60006101678261008d565b91506101728361008d565b925082820390508181111561018a5761018961012d565b5b9291505056fea2646970667358221220d9431d8c53fd82638907384b1b2756d1a81fab97421a859fd5f99f23f340632964736f6c63430008120033",
					"opcodes": "PUSH1 0x80 PUSH1 0x40 MSTORE CALLVALUE DUP1 ISZERO PUSH2 0x10 JUMPI PUSH1 0x0 DUP1 REVERT JUMPDEST POP PUSH2 0x1C6 DUP1 PUSH2 0x20 PUSH1 0x0 CODECOPY PUSH1 0x0 RETURN INVALID PUSH1 0x80 PUSH1 0x40 MSTORE CALLVALUE DUP1 ISZERO PUSH2 0x10 JUMPI PUSH1 0x0 DUP1 REVERT JUMPDEST POP PUSH1 0x4 CALLDATASIZE LT PUSH2 0x2B JUMPI PUSH1 0x0 CALLDATALOAD PUSH1 0xE0 SHR DUP1 PUSH4 0xD0F707DF EQ PUSH2 0x30 JUMPI JUMPDEST PUSH1 0x0 DUP1 REVERT JUMPDEST PUSH2 0x4A PUSH1 0x4 DUP1 CALLDATASIZE SUB DUP2 ADD SWAP1 PUSH2 0x45 SWAP2 SWAP1 PUSH2 0xC3 JUMP JUMPDEST PUSH2 0x60 JUMP JUMPDEST PUSH1 0x40 MLOAD PUSH2 0x57 SWAP2 SWAP1 PUSH2 0x112 JUMP JUMPDEST PUSH1 0x40 MLOAD DUP1 SWAP2 SUB SWAP1 RETURN JUMPDEST PUSH1 0x0 DUP3 PUSH1 0x0 DUP2 SWAP1 SSTORE POP DUP2 PUSH1 0x1 DUP2 SWAP1 SSTORE POP PUSH1 0x1 SLOAD PUSH1 0x0 SLOAD PUSH2 0x80 SWAP2 SWAP1 PUSH2 0x15C JUMP JUMPDEST SWAP1 POP SWAP3 SWAP2 POP POP JUMP JUMPDEST PUSH1 0x0 DUP1 REVERT JUMPDEST PUSH1 0x0 DUP2 SWAP1 POP SWAP2 SWAP1 POP JUMP JUMPDEST PUSH2 0xA0 DUP2 PUSH2 0x8D JUMP JUMPDEST DUP2 EQ PUSH2 0xAB JUMPI PUSH1 0x0 DUP1 REVERT JUMPDEST POP JUMP JUMPDEST PUSH1 0x0 DUP2 CALLDATALOAD SWAP1 POP PUSH2 0xBD DUP2 PUSH2 0x97 JUMP JUMPDEST SWAP3 SWAP2 POP POP JUMP JUMPDEST PUSH1 0x0 DUP1 PUSH1 0x40 DUP4 DUP6 SUB SLT ISZERO PUSH2 0xDA JUMPI PUSH2 0xD9 PUSH2 0x88 JUMP JUMPDEST JUMPDEST PUSH1 0x0 PUSH2 0xE8 DUP6 DUP3 DUP7 ADD PUSH2 0xAE JUMP JUMPDEST SWAP3 POP POP PUSH1 0x20 PUSH2 0xF9 DUP6 DUP3 DUP7 ADD PUSH2 0xAE JUMP JUMPDEST SWAP2 POP POP SWAP3 POP SWAP3 SWAP1 POP JUMP JUMPDEST PUSH2 0x10C DUP2 PUSH2 0x8D JUMP JUMPDEST DUP3 MSTORE POP POP JUMP JUMPDEST PUSH1 0x0 PUSH1 0x20 DUP3 ADD SWAP1 POP PUSH2 0x127 PUSH1 0x0 DUP4 ADD DUP5 PUSH2 0x103 JUMP JUMPDEST SWAP3 SWAP2 POP POP JUMP JUMPDEST PUSH32 0x4E487B7100000000000000000000000000000000000000000000000000000000 PUSH1 0x0 MSTORE PUSH1 0x11 PUSH1 0x4 MSTORE PUSH1 0x24 PUSH1 0x0 REVERT JUMPDEST PUSH1 0x0 PUSH2 0x167 DUP3 PUSH2 0x8D JUMP JUMPDEST SWAP2 POP PUSH2 0x172 DUP4 PUSH2 0x8D JUMP JUMPDEST SWAP3 POP DUP3 DUP3 SUB SWAP1 POP DUP2 DUP2 GT ISZERO PUSH2 0x18A JUMPI PUSH2 0x189 PUSH2 0x12D JUMP JUMPDEST JUMPDEST SWAP3 SWAP2 POP POP JUMP INVALID LOG2 PUSH5 0x6970667358 0x22 SLT KECCAK256 0xD9 NUMBER SAR DUP13 MSTORE8 REVERT DUP3 PUSH4 0x8907384B SHL 0x27 JUMP 0xD1 0xA8 0x1F 0xAB SWAP8 TIMESTAMP BYTE DUP6 SWAP16 0xD5 0xF9 SWAP16 0x23 RETURN BLOCKHASH PUSH4 0x2964736F PUSH13 0x63430008120033000000000000 "
				},
				"gasEstimates": {
					"creation": {
						"codeDepositCost": "90800",
						"executionCost": "141",
						"totalCost": "90941"
					},
					"external": {
						"sumfunction(uint256,uint256)": "infinite"
					}
				},
				"methodIdentifiers": {
					"sumfunction(uint256,uint256)": "d0f707df"
				}
			},
			"storageLayout": {
				"storage": [
					{
						"astId": 3,
						"contract": "function.sol:addfunction",
						"label": "a",
						"offset": 0,
						"slot": "0",
						"type": "t_uint256"
					},
					{
						"astId": 5,
						"contract": "function.sol:addfunction",
						"label": "b",
						"offset": 0,
						"slot": "1",
						"type": "t_uint256"
					}
				],
				"types": {
					"t_uint256": {
						"encoding": "inplace",
						"label": "uint256",
						"numberOfBytes": "32"
					}
				}
			},
			"userdoc": {
				"kind": "user",
				"methods": {},
				"version": 1
			}
		}
	}
}