{
	"data": {
		"bytecode": {
			"linkReferences": {},
			"object": "608060405234801561001057600080fd5b506101a0806100206000396000f3fe608060405234801561001057600080fd5b506004361061002b5760003560e01c8063a92100cb14610030575b600080fd5b61003861003a565b005b60005b600a81101561006c57600381031561005957600581031561006c575b8080610064906100e0565b91505061003d565b5060005b600a81101561008c578080610084906100e0565b915050610070565b5b60028161009a9190610128565b90506014811061008d5750565b7f4e487b7100000000000000000000000000000000000000000000000000000000600052601160045260246000fd5b6000819050919050565b60006100eb826100d6565b91507fffffffffffffffffffffffffffffffffffffffffffffffffffffffffffffffff820361011d5761011c6100a7565b5b600182019050919050565b6000610133826100d6565b915061013e836100d6565b925082820261014c816100d6565b91508282048414831517610163576101626100a7565b5b509291505056fea2646970667358221220e3fba7bc3447ce13620e199cf44efa2bc76f721d176b7d9424a5cb0314b5ce7064736f6c63430008120033",
			"opcodes": "PUSH1 0x80 PUSH1 0x40 MSTORE CALLVALUE DUP1 ISZERO PUSH2 0x10 JUMPI PUSH1 0x0 DUP1 REVERT JUMPDEST POP PUSH2 0x1A0 DUP1 PUSH2 0x20 PUSH1 0x0 CODECOPY PUSH1 0x0 RETURN INVALID PUSH1 0x80 PUSH1 0x40 MSTORE CALLVALUE DUP1 ISZERO PUSH2 0x10 JUMPI PUSH1 0x0 DUP1 REVERT JUMPDEST POP PUSH1 0x4 CALLDATASIZE LT PUSH2 0x2B JUMPI PUSH1 0x0 CALLDATALOAD PUSH1 0xE0 SHR DUP1 PUSH4 0xA92100CB EQ PUSH2 0x30 JUMPI JUMPDEST PUSH1 0x0 DUP1 REVERT JUMPDEST PUSH2 0x38 PUSH2 0x3A JUMP JUMPDEST STOP JUMPDEST PUSH1 0x0 JUMPDEST PUSH1 0xA DUP2 LT ISZERO PUSH2 0x6C JUMPI PUSH1 0x3 DUP2 SUB ISZERO PUSH2 0x59 JUMPI PUSH1 0x5 DUP2 SUB ISZERO PUSH2 0x6C JUMPI JUMPDEST DUP1 DUP1 PUSH2 0x64 SWAP1 PUSH2 0xE0 JUMP JUMPDEST SWAP2 POP POP PUSH2 0x3D JUMP JUMPDEST POP PUSH1 0x0 JUMPDEST PUSH1 0xA DUP2 LT ISZERO PUSH2 0x8C JUMPI DUP1 DUP1 PUSH2 0x84 SWAP1 PUSH2 0xE0 JUMP JUMPDEST SWAP2 POP POP PUSH2 0x70 JUMP JUMPDEST JUMPDEST PUSH1 0x2 DUP2 PUSH2 0x9A SWAP2 SWAP1 PUSH2 0x128 JUMP JUMPDEST SWAP1 POP PUSH1 0x14 DUP2 LT PUSH2 0x8D JUMPI POP JUMP JUMPDEST PUSH32 0x4E487B7100000000000000000000000000000000000000000000000000000000 PUSH1 0x0 MSTORE PUSH1 0x11 PUSH1 0x4 MSTORE PUSH1 0x24 PUSH1 0x0 REVERT JUMPDEST PUSH1 0x0 DUP2 SWAP1 POP SWAP2 SWAP1 POP JUMP JUMPDEST PUSH1 0x0 PUSH2 0xEB DUP3 PUSH2 0xD6 JUMP JUMPDEST SWAP2 POP PUSH32 0xFFFFFFFFFFFFFFFFFFFFFFFFFFFFFFFFFFFFFFFFFFFFFFFFFFFFFFFFFFFFFFFF DUP3 SUB PUSH2 0x11D JUMPI PUSH2 0x11C PUSH2 0xA7 JUMP JUMPDEST JUMPDEST PUSH1 0x1 DUP3 ADD SWAP1 POP SWAP2 SWAP1 POP JUMP JUMPDEST PUSH1 0x0 PUSH2 0x133 DUP3 PUSH2 0xD6 JUMP JUMPDEST SWAP2 POP PUSH2 0x13E DUP4 PUSH2 0xD6 JUMP JUMPDEST SWAP3 POP DUP3 DUP3 MUL PUSH2 0x14C DUP2 PUSH2 0xD6 JUMP JUMPDEST SWAP2 POP DUP3 DUP3 DIV DUP5 EQ DUP4 ISZERO OR PUSH2 0x163 JUMPI PUSH2 0x162 PUSH2 0xA7 JUMP JUMPDEST JUMPDEST POP SWAP3 SWAP2 POP POP JUMP INVALID LOG2 PUSH5 0x6970667358 0x22 SLT KECCAK256 0xE3 0xFB 0xA7 0xBC CALLVALUE SELFBALANCE 0xCE SGT PUSH3 0xE199C DELEGATECALL 0x4E STATICCALL 0x2B 0xC7 PUSH16 0x721D176B7D9424A5CB0314B5CE706473 PUSH16 0x6C634300081200330000000000000000 "
		},
		"gasEstimates": {
			"creation": {
				"codeDepositCost": "83200",
				"executionCost": "129",
				"totalCost": "83329"
			},
			"external": {
				"loop()": "infinite"
			}
		},
		"methodIdentifiers": {
			"loop()": "a92100cb"
		}
	},
	"abi": [
		{
			"inputs": [],
			"name": "loop",
			"outputs": [],
			"stateMutability": "pure",
			"type": "function"
		}
	]
}